{
  "_format": "hh-sol-artifact-1",
  "contractName": "TweetFactory",
  "sourceName": "contracts/TweetFactory.sol",
  "abi": [
    {
      "anonymous": false,
      "inputs": [
        {
          "indexed": false,
          "internalType": "uint32",
          "name": "tweetId",
          "type": "uint32"
        }
      ],
      "name": "DeleteTweet",
      "type": "event"
    },
    {
      "anonymous": false,
      "inputs": [
        {
          "indexed": false,
          "internalType": "uint32",
          "name": "tweetId",
          "type": "uint32"
        },
        {
          "indexed": false,
          "internalType": "string",
          "name": "tweet",
          "type": "string"
        },
        {
          "indexed": false,
          "internalType": "address",
          "name": "owner",
          "type": "address"
        },
        {
          "indexed": false,
          "internalType": "uint32",
          "name": "publishedTime",
          "type": "uint32"
        }
      ],
      "name": "NewTweet",
      "type": "event"
    },
    {
      "anonymous": false,
      "inputs": [
        {
          "indexed": false,
          "internalType": "uint32",
          "name": "tweetId",
          "type": "uint32"
        },
        {
          "indexed": false,
          "internalType": "string",
          "name": "tweet",
          "type": "string"
        },
        {
          "indexed": false,
          "internalType": "address",
          "name": "owner",
          "type": "address"
        },
        {
          "indexed": false,
          "internalType": "uint32",
          "name": "publishedTime",
          "type": "uint32"
        }
      ],
      "name": "UpdatedTweet",
      "type": "event"
    },
    {
      "inputs": [
        {
          "internalType": "string",
          "name": "_tweet",
          "type": "string"
        }
      ],
      "name": "createTweet",
      "outputs": [],
      "stateMutability": "nonpayable",
      "type": "function"
    },
    {
      "inputs": [
        {
          "internalType": "uint256",
          "name": "_tweetId",
          "type": "uint256"
        }
      ],
      "name": "deleteTweet",
      "outputs": [],
      "stateMutability": "nonpayable",
      "type": "function"
    },
    {
      "inputs": [],
      "name": "getTweets",
      "outputs": [
        {
          "components": [
            {
              "internalType": "uint32",
              "name": "tweetId",
              "type": "uint32"
            },
            {
              "internalType": "string",
              "name": "tweet",
              "type": "string"
            },
            {
              "internalType": "address",
              "name": "owner",
              "type": "address"
            },
            {
              "internalType": "uint32",
              "name": "publishedTime",
              "type": "uint32"
            }
          ],
          "internalType": "struct TweetFactory.Tweet[]",
          "name": "",
          "type": "tuple[]"
        }
      ],
      "stateMutability": "view",
      "type": "function"
    },
    {
      "inputs": [
        {
          "internalType": "uint32",
          "name": "",
          "type": "uint32"
        }
      ],
      "name": "tweetToOwner",
      "outputs": [
        {
          "internalType": "address",
          "name": "",
          "type": "address"
        }
      ],
      "stateMutability": "view",
      "type": "function"
    },
    {
      "inputs": [
        {
          "internalType": "uint256",
          "name": "",
          "type": "uint256"
        }
      ],
      "name": "tweets",
      "outputs": [
        {
          "internalType": "uint32",
          "name": "tweetId",
          "type": "uint32"
        },
        {
          "internalType": "string",
          "name": "tweet",
          "type": "string"
        },
        {
          "internalType": "address",
          "name": "owner",
          "type": "address"
        },
        {
          "internalType": "uint32",
          "name": "publishedTime",
          "type": "uint32"
        }
      ],
      "stateMutability": "view",
      "type": "function"
    },
    {
      "inputs": [
        {
          "internalType": "uint256",
          "name": "_tweetId",
          "type": "uint256"
        },
        {
          "internalType": "string",
          "name": "_tweet",
          "type": "string"
        }
      ],
      "name": "updateTweet",
      "outputs": [],
      "stateMutability": "nonpayable",
      "type": "function"
    }
  ],
  "bytecode": "0x608060405234801561001057600080fd5b50611158806100206000396000f3fe608060405234801561001057600080fd5b50600436106100625760003560e01c80635775912a146100675780637c0aa77a146100835780637c9cd2bc1461009f578063e8d857b0146100bb578063faa416dd146100ee578063fc86741f1461011e575b600080fd5b610081600480360381019061007c9190610b88565b61013c565b005b61009d60048036038101906100989190610bb1565b6103d2565b005b6100b960048036038101906100b49190610b47565b61057a565b005b6100d560048036038101906100d09190610b88565b610744565b6040516100e59493929190610e63565b60405180910390f35b61010860048036038101906101039190610c05565b61084c565b6040516101159190610deb565b60405180910390f35b61012661087f565b6040516101339190610e06565b60405180910390f35b6000808263ffffffff1663ffffffff16815260200190815260200160002060009054906101000a900473ffffffffffffffffffffffffffffffffffffffff1673ffffffffffffffffffffffffffffffffffffffff163373ffffffffffffffffffffffffffffffffffffffff16146101e8576040517f08c379a00000000000000000000000000000000000000000000000000000000081526004016101df90610e28565b60405180910390fd5b6040518060800160405280600063ffffffff168152602001604051806020016040528060008152508152602001600073ffffffffffffffffffffffffffffffffffffffff168152602001600063ffffffff1681525060018281548110610277577f4e487b7100000000000000000000000000000000000000000000000000000000600052603260045260246000fd5b906000526020600020906003020160008201518160000160006101000a81548163ffffffff021916908363ffffffff16021790555060208201518160010190805190602001906102c8929190610a12565b5060408201518160020160006101000a81548173ffffffffffffffffffffffffffffffffffffffff021916908373ffffffffffffffffffffffffffffffffffffffff16021790555060608201518160020160146101000a81548163ffffffff021916908363ffffffff16021790555090505060008060008363ffffffff1663ffffffff16815260200190815260200160002060006101000a81548173ffffffffffffffffffffffffffffffffffffffff021916908373ffffffffffffffffffffffffffffffffffffffff1602179055507fd2593cc450a5b286cc2f00ada5fec2bf8cc8eb1c7a112e679c11f17ec51a666d816040516103c79190610e48565b60405180910390a150565b6000808363ffffffff1663ffffffff16815260200190815260200160002060009054906101000a900473ffffffffffffffffffffffffffffffffffffffff1673ffffffffffffffffffffffffffffffffffffffff163373ffffffffffffffffffffffffffffffffffffffff161461047e576040517f08c379a000000000000000000000000000000000000000000000000000000000815260040161047590610e28565b60405180910390fd5b80600183815481106104b9577f4e487b7100000000000000000000000000000000000000000000000000000000600052603260045260246000fd5b906000526020600020906003020160010190805190602001906104dd929190610a12565b507fcd02306b3633bdf67dfce2e4fbdd298a0a7520522c2e2d8b7a8aae8a86d56b6d8282336001868154811061053c577f4e487b7100000000000000000000000000000000000000000000000000000000600052603260045260246000fd5b906000526020600020906003020160020160149054906101000a900463ffffffff1660405161056e9493929190610e63565b60405180910390a15050565b60006001805490509050600160405180608001604052808363ffffffff1681526020018481526020013373ffffffffffffffffffffffffffffffffffffffff1681526020014263ffffffff16815250908060018154018082558091505060019003906000526020600020906003020160009091909190915060008201518160000160006101000a81548163ffffffff021916908363ffffffff1602179055506020820151816001019080519060200190610635929190610a12565b5060408201518160020160006101000a81548173ffffffffffffffffffffffffffffffffffffffff021916908373ffffffffffffffffffffffffffffffffffffffff16021790555060608201518160020160146101000a81548163ffffffff021916908363ffffffff1602179055505050336000808363ffffffff1663ffffffff16815260200190815260200160002060006101000a81548173ffffffffffffffffffffffffffffffffffffffff021916908373ffffffffffffffffffffffffffffffffffffffff1602179055507faeea5fd176a4897d9e93b54347800f7ce2b197acbcee0bf3e0bce21901193b94818333426040516107389493929190610e63565b60405180910390a15050565b6001818154811061075457600080fd5b90600052602060002090600302016000915090508060000160009054906101000a900463ffffffff169080600101805461078d90610ff9565b80601f01602080910402602001604051908101604052809291908181526020018280546107b990610ff9565b80156108065780601f106107db57610100808354040283529160200191610806565b820191906000526020600020905b8154815290600101906020018083116107e957829003601f168201915b5050505050908060020160009054906101000a900473ffffffffffffffffffffffffffffffffffffffff16908060020160149054906101000a900463ffffffff16905084565b60006020528060005260406000206000915054906101000a900473ffffffffffffffffffffffffffffffffffffffff1681565b60606001805480602002602001604051908101604052809291908181526020016000905b82821015610a0957838290600052602060002090600302016040518060800160405290816000820160009054906101000a900463ffffffff1663ffffffff1663ffffffff1681526020016001820180546108fc90610ff9565b80601f016020809104026020016040519081016040528092919081815260200182805461092890610ff9565b80156109755780601f1061094a57610100808354040283529160200191610975565b820191906000526020600020905b81548152906001019060200180831161095857829003601f168201915b505050505081526020016002820160009054906101000a900473ffffffffffffffffffffffffffffffffffffffff1673ffffffffffffffffffffffffffffffffffffffff1673ffffffffffffffffffffffffffffffffffffffff1681526020016002820160149054906101000a900463ffffffff1663ffffffff1663ffffffff1681525050815260200190600101906108a3565b50505050905090565b828054610a1e90610ff9565b90600052602060002090601f016020900481019282610a405760008555610a87565b82601f10610a5957805160ff1916838001178555610a87565b82800160010185558215610a87579182015b82811115610a86578251825591602001919060010190610a6b565b5b509050610a949190610a98565b5090565b5b80821115610ab1576000816000905550600101610a99565b5090565b6000610ac8610ac384610ed4565b610eaf565b905082815260208101848484011115610ae057600080fd5b610aeb848285610fb7565b509392505050565b600082601f830112610b0457600080fd5b8135610b14848260208601610ab5565b91505092915050565b600081359050610b2c816110f4565b92915050565b600081359050610b418161110b565b92915050565b600060208284031215610b5957600080fd5b600082013567ffffffffffffffff811115610b7357600080fd5b610b7f84828501610af3565b91505092915050565b600060208284031215610b9a57600080fd5b6000610ba884828501610b1d565b91505092915050565b60008060408385031215610bc457600080fd5b6000610bd285828601610b1d565b925050602083013567ffffffffffffffff811115610bef57600080fd5b610bfb85828601610af3565b9150509250929050565b600060208284031215610c1757600080fd5b6000610c2584828501610b32565b91505092915050565b6000610c3a8383610d6a565b905092915050565b610c4b81610f6b565b82525050565b610c5a81610f6b565b82525050565b6000610c6b82610f15565b610c758185610f38565b935083602082028501610c8785610f05565b8060005b85811015610cc35784840389528151610ca48582610c2e565b9450610caf83610f2b565b925060208a01995050600181019050610c8b565b50829750879550505050505092915050565b6000610ce082610f20565b610cea8185610f49565b9350610cfa818560208601610fc6565b610d03816110ba565b840191505092915050565b6000610d1982610f20565b610d238185610f5a565b9350610d33818560208601610fc6565b610d3c816110ba565b840191505092915050565b6000610d54601e83610f5a565b9150610d5f826110cb565b602082019050919050565b6000608083016000830151610d826000860182610dcd565b5060208301518482036020860152610d9a8282610cd5565b9150506040830151610daf6040860182610c42565b506060830151610dc26060860182610dcd565b508091505092915050565b610dd681610fa7565b82525050565b610de581610fa7565b82525050565b6000602082019050610e006000830184610c51565b92915050565b60006020820190508181036000830152610e208184610c60565b905092915050565b60006020820190508181036000830152610e4181610d47565b9050919050565b6000602082019050610e5d6000830184610ddc565b92915050565b6000608082019050610e786000830187610ddc565b8181036020830152610e8a8186610d0e565b9050610e996040830185610c51565b610ea66060830184610ddc565b95945050505050565b6000610eb9610eca565b9050610ec5828261102b565b919050565b6000604051905090565b600067ffffffffffffffff821115610eef57610eee61108b565b5b610ef8826110ba565b9050602081019050919050565b6000819050602082019050919050565b600081519050919050565b600081519050919050565b6000602082019050919050565b600082825260208201905092915050565b600082825260208201905092915050565b600082825260208201905092915050565b6000610f7682610f7d565b9050919050565b600073ffffffffffffffffffffffffffffffffffffffff82169050919050565b6000819050919050565b600063ffffffff82169050919050565b82818337600083830152505050565b60005b83811015610fe4578082015181840152602081019050610fc9565b83811115610ff3576000848401525b50505050565b6000600282049050600182168061101157607f821691505b602082108114156110255761102461105c565b5b50919050565b611034826110ba565b810181811067ffffffffffffffff821117156110535761105261108b565b5b80604052505050565b7f4e487b7100000000000000000000000000000000000000000000000000000000600052602260045260246000fd5b7f4e487b7100000000000000000000000000000000000000000000000000000000600052604160045260246000fd5b6000601f19601f8301169050919050565b7f596f75206e65656420746f20626520746865207477656574206f776e65720000600082015250565b6110fd81610f9d565b811461110857600080fd5b50565b61111481610fa7565b811461111f57600080fd5b5056fea264697066735822122043dc3decd6fb35a82c57b957af7525cdc53628b26c34d698db59392239a0c3c664736f6c63430008040033",
  "linkReferences": {},
  "deployedLinkReferences": {}
}